{
  "transactions": [
    {
      "hash": "0x29c042997eb852b591f4e3889ce77f0dcad8f6cefd6e3bd469fc54db884a29cf",
      "transactionType": "CALL",
      "contractName": null,
      "contractAddress": "0xa38062f23cbf30680de009e59e62b62f6c95a35a",
      "function": "setBaseURI(string)",
      "arguments": [
        "https://api.agvprotocol.com/metadata/seedpass/"
      ],
      "transaction": {
        "from": "0xf39fd6e51aad88f6f4ce6ab8827279cfffb92266",
        "to": "0xa38062f23cbf30680de009e59e62b62f6c95a35a",
        "gas": "0x21f76",
        "value": "0x0",
        "input": "0x55f804b30000000000000000000000000000000000000000000000000000000000000020000000000000000000000000000000000000000000000000000000000000002e68747470733a2f2f6170692e61677670726f746f636f6c2e636f6d2f6d657461646174612f73656564706173732f000000000000000000000000000000000000",
        "nonce": "0x86d",
        "chainId": "0x539"
      },
      "additionalContracts": [],
      "isFixedGasLimit": false
    },
    {
      "hash": "0xbca4f1d67f97fc51c9f22ddaf85d5d9d15db347bc78f811b37bdfe1181abb45b",
      "transactionType": "CALL",
      "contractName": null,
      "contractAddress": "0xa38062f23cbf30680de009e59e62b62f6c95a35a",
      "function": "grantAgentRole(address)",
      "arguments": [
        "0x70997970C51812dc3A010C7d01b50e0d17dc79C8"
      ],
      "transaction": {
        "from": "0xf39fd6e51aad88f6f4ce6ab8827279cfffb92266",
        "to": "0xa38062f23cbf30680de009e59e62b62f6c95a35a",
        "gas": "0x12c55",
        "value": "0x0",
        "input": "0xf975731300000000000000000000000070997970c51812dc3a010c7d01b50e0d17dc79c8",
        "nonce": "0x86e",
        "chainId": "0x539"
      },
      "additionalContracts": [],
      "isFixedGasLimit": false
    },
    {
      "hash": "0x090d0e1ac1b963c1f503925b3be36c264612507976b4458cc7a314bf805adf82",
      "transactionType": "CALL",
      "contractName": null,
      "contractAddress": "0xa38062f23cbf30680de009e59e62b62f6c95a35a",
      "function": "setSaleConfig(uint256,uint256,bool)",
      "arguments": [
        "1700114255",
        "1701320255",
        "true"
      ],
      "transaction": {
        "from": "0xf39fd6e51aad88f6f4ce6ab8827279cfffb92266",
        "to": "0xa38062f23cbf30680de009e59e62b62f6c95a35a",
        "gas": "0xd130",
        "value": "0x0",
        "input": "0xdb9935ff000000000000000000000000000000000000000000000000000000006555af4f000000000000000000000000000000000000000000000000000000006568163f0000000000000000000000000000000000000000000000000000000000000001",
        "nonce": "0x86f",
        "chainId": "0x539"
      },
      "additionalContracts": [],
      "isFixedGasLimit": false
    }
  ],
  "receipts": [
    {
      "status": "0x1",
      "cumulativeGasUsed": "0x18975",
      "logs": [
        {
          "address": "0xa38062f23cbf30680de009e59e62b62f6c95a35a",
          "topics": [
            "0x6741b2fc379fad678116fe3d4d4b9a1a184ab53ba36b86ad0fa66340b1ab41ad"
          ],
          "data": "0x0000000000000000000000000000000000000000000000000000000000000020000000000000000000000000000000000000000000000000000000000000002e68747470733a2f2f6170692e61677670726f746f636f6c2e636f6d2f6d657461646174612f73656564706173732f000000000000000000000000000000000000",
          "blockHash": "0x35805db07b82f46194284881407578270bd06ee06b7687c53fff0b04862c1141",
          "blockNumber": "0x2faf083",
          "blockTimestamp": "0x6555a3c1",
          "transactionHash": "0x29c042997eb852b591f4e3889ce77f0dcad8f6cefd6e3bd469fc54db884a29cf",
          "transactionIndex": "0x0",
          "logIndex": "0x0",
          "removed": false
        }
      ],
      "logsBloom": "0x00000000000000000000000000000000000000000000000000000000000000080000000000000000000000000000000000000000000000000000000000000000000000000000000000000000002000000000000000000000400000000000000000000000000000000000000000000000000000000000000000000000000000000000000000000000000000000000000000000000000000000000080000000000000000000000000000000000000000000000000000000000000000000000000000000000000000000000000000004000000000000000000000000000000000002000000000000000000000000000000000000000000000000000000000000000",
      "type": "0x2",
      "transactionHash": "0x29c042997eb852b591f4e3889ce77f0dcad8f6cefd6e3bd469fc54db884a29cf",
      "transactionIndex": "0x0",
      "blockHash": "0x35805db07b82f46194284881407578270bd06ee06b7687c53fff0b04862c1141",
      "blockNumber": "0x2faf083",
      "gasUsed": "0x18975",
      "effectiveGasPrice": "0x1d803322f4",
      "blobGasPrice": "0x1",
      "from": "0xf39fd6e51aad88f6f4ce6ab8827279cfffb92266",
      "to": "0xa38062f23cbf30680de009e59e62b62f6c95a35a",
      "contractAddress": null
    },
    {
      "status": "0x1",
      "cumulativeGasUsed": "0xd970",
      "logs": [
        {
          "address": "0xa38062f23cbf30680de009e59e62b62f6c95a35a",
          "topics": [
            "0x2f8788117e7eff1d82e926ec794901d17c78024a50270940304540a733656f0d",
            "0x1af3f8b28772c637dd1c9675558d9674ce17303d5b80a831f8399bb5c3b36154",
            "0x00000000000000000000000070997970c51812dc3a010c7d01b50e0d17dc79c8",
            "0x000000000000000000000000f39fd6e51aad88f6f4ce6ab8827279cfffb92266"
          ],
          "data": "0x",
          "blockHash": "0x4564174e1fa779c74efb8cecddfdc63461ab83895ceeaab0b5a269dfc8e411b1",
          "blockNumber": "0x2faf084",
          "blockTimestamp": "0x6555a3c1",
          "transactionHash": "0xbca4f1d67f97fc51c9f22ddaf85d5d9d15db347bc78f811b37bdfe1181abb45b",
          "transactionIndex": "0x0",
          "logIndex": "0x0",
          "removed": false
        },
        {
          "address": "0xa38062f23cbf30680de009e59e62b62f6c95a35a",
          "topics": [
            "0xe9426c05342415a2258554b212d5c628e522888281554af132005b419bfb43b9",
            "0x00000000000000000000000070997970c51812dc3a010c7d01b50e0d17dc79c8"
          ],
          "data": "0x0000000000000000000000000000000000000000000000000000000000000001",
          "blockHash": "0x4564174e1fa779c74efb8cecddfdc63461ab83895ceeaab0b5a269dfc8e411b1",
          "blockNumber": "0x2faf084",
          "blockTimestamp": "0x6555a3c1",
          "transactionHash": "0xbca4f1d67f97fc51c9f22ddaf85d5d9d15db347bc78f811b37bdfe1181abb45b",
          "transactionIndex": "0x0",
          "logIndex": "0x1",
          "removed": false
        }
      ],
      "logsBloom": "0x00000004000000000002000000000000000000000000000000000000000000000000000080000000000000000000000000000000000000000000000000000000000000000000000000000000002000000000000000000000400002000000000000000800000000000000000100000000000000000000000000000000000000000000000000000000000000000100000000000000000000000000080000000000000000000000000000000000000000000000000000000000001008000000000000000000000000200000020000000000000000002000000100000000000000000000000000000000000000000000000001004000000000000000000000000000",
      "type": "0x2",
      "transactionHash": "0xbca4f1d67f97fc51c9f22ddaf85d5d9d15db347bc78f811b37bdfe1181abb45b",
      "transactionIndex": "0x0",
      "blockHash": "0x4564174e1fa779c74efb8cecddfdc63461ab83895ceeaab0b5a269dfc8e411b1",
      "blockNumber": "0x2faf084",
      "gasUsed": "0xd970",
      "effectiveGasPrice": "0x1abc4bbbbc",
      "blobGasPrice": "0x1",
      "from": "0xf39fd6e51aad88f6f4ce6ab8827279cfffb92266",
      "to": "0xa38062f23cbf30680de009e59e62b62f6c95a35a",
      "contractAddress": null
    },
    {
      "status": "0x1",
      "cumulativeGasUsed": "0x8f09",
      "logs": [
        {
          "address": "0xa38062f23cbf30680de009e59e62b62f6c95a35a",
          "topics": [
            "0x846a22f35b0fe905d6e636740b90f1c45f0ed780462fdf6daa2bb7b09fa9d21c"
          ],
          "data": "0x000000000000000000000000000000000000000000000000000000006555af4f000000000000000000000000000000000000000000000000000000006568163f0000000000000000000000000000000000000000000000000000000000000001",
          "blockHash": "0x0692c0e9da71dd3d6e2c908c88534e9d610ac149661bca2ffa81be1abb597011",
          "blockNumber": "0x2faf085",
          "blockTimestamp": "0x6555a3c1",
          "transactionHash": "0x090d0e1ac1b963c1f503925b3be36c264612507976b4458cc7a314bf805adf82",
          "transactionIndex": "0x0",
          "logIndex": "0x0",
          "removed": false
        }
      ],
      "logsBloom": "0x00000000000000000000000000000000000000000000000000000000000000000000000000000000000000000000000000000000000000000000000000000000000000000000000000000000002000000000000000000000400000000000000080000000001000000000000000000000000000000000000000000000000000000000000000000000000000000000000000000000000000000000080000000000000000000000000000000000000000000000000000000000000000000000000000000000000000000000000000000000000000000001000000000000000000000000000000000000000000000000000000000000000000000000000000000000",
      "type": "0x2",
      "transactionHash": "0x090d0e1ac1b963c1f503925b3be36c264612507976b4458cc7a314bf805adf82",
      "transactionIndex": "0x0",
      "blockHash": "0x0692c0e9da71dd3d6e2c908c88534e9d610ac149661bca2ffa81be1abb597011",
      "blockNumber": "0x2faf085",
      "gasUsed": "0x8f09",
      "effectiveGasPrice": "0x184e5fb74e",
      "blobGasPrice": "0x1",
      "from": "0xf39fd6e51aad88f6f4ce6ab8827279cfffb92266",
      "to": "0xa38062f23cbf30680de009e59e62b62f6c95a35a",
      "contractAddress": null
    }
  ],
  "libraries": [],
  "pending": [],
  "returns": {},
  "timestamp": 1755647294,
  "chain": 1337,
  "commit": "a517605"
}